:100000000C94C5000C94E2000C94E2000C94E20005
:100010000C94E2000C94E2000C94E2000C94E200D8
:100020000C94E2000C94E2000C94E2000C94E200C8
:100030000C94E2000C94E2000C94E2000C94E200B8
:100040000C94E2000C94E2000C94E2000C94E200A8
:100050000C94E2000C94E2000C94E2000C94E20098
:100060000C94E2000C947F010C94E2000C94E200EA
:100070000C94E2000C94E2000C94E2000C94E20078
:100080000C94E2000C94E2000C94E2000C94E20068
:100090000C94E2000C94E2000C94E2000C94E20058
:1000A0000C94E2000C94E2000C94E2000C94E20048
:1000B0000C94E2000C94E2000C94E2000C94E20038
:1000C0000C94E2000C94E2000C94E2000C94E20028
:1000D0000C94E2000C94E2000C94E2000C94E20018
:1000E0000C94E2000C94E2000C94E2000C94E20008
:1000F0000C94E2000C94E2000C94E2000C94E200F8
:100100000C94E2000C94E2000C94E2000C94E200E7
:100110000C94E2000C94E2000C94E2000C94E200D7
:100120000C94E2000C94E2000C94E2000C94E200C7
:100130000C94E2000C94D5010C94E2000C94E200C3
:100140000C94E2000C94E2000C94E2000C94E200A7
:100150000C94E2000C94E2000C94E2000C94E20097
:100160000C94E2000C94E2000C94E20005A84CCD43
:10017000B2D44EB93836A9020C50B9918688083CE1
:10018000A6AAAA2ABE000000803F11241FBECFEFFE
:10019000D7E2DEBFCDBF10E2A0E0B0E2E0E5FFE0D5
:1001A00002C005900D92A632B107D9F710E2A6E27F
:1001B000B0E201C01D92AB32B107E1F70E943901F4
:1001C0000C94A6070C94000048ED44BF80934000B7
:1001D000089548ED44BF41E040937900089590911F
:1001E000A10895FFFCCF8093A00880E090E00895DF
:1001F000E0E4F6E088E0858388EA8183E0E6F6E0E3
:100200008DE08583818380915000826080935000CF
:10021000E0E4F0E011828091510081FFFCCF81E0A9
:100220000E94E400E0EAF8E080E1838383E08583D4
:100230008EE2868388E9878388E18483E0E0F9E0C1
:1002400088EE91E086A397A387E08093000983EC72
:10025000818381E0868380E091E0809329209093E0
:100260002A208091A2008160E0EAF0E08283789405
:100270000895EF92FF920F931F93DF93CF93CDB723
:10028000DEB72E97CDBFDEBF0E94F8008E010F5F54
:100290001F4F8EE0D8011D928A95E9F782E08C838A
:1002A0008FEE90E089879A8780E090E2B8010E9403
:1002B000CA0478010FE010E2809128208823E1F33E
:1002C000109228208091292090912A2000D000D0DF
:1002D00000D0EDB7FEB73196ADB7BEB71196EC9230
:1002E00011971296FC9202831383848395830E9454
:1002F000B604EDB7FEB73696EDBFFEBFDDCF1F9259
:100300000F920FB60F9211242F933F934F935F9349
:100310006F937F938F939F93AF93BF93EF93FF93CD
:100320008091A0088333F9F0843338F4813389F065
:100330008233B0F4803329F509C08533D1F0853399
:10034000A8F08633C9F08235E1F419C080E190E06D
:1003500002C080E290E08093292090932A2011C06F
:1003600080E490E0F8CF80E890E0F5CF80E091E085
:10037000F2CF80E092E0EFCF80E094E0ECCF0E94FB
:10038000E90081E080932820FF91EF91BF91AF9128
:100390009F918F917F916F915F914F913F912F919D
:1003A0000F900FBE0F901F9018951F920F920FB6CF
:1003B0000F921124CF92DF92EF92FF920F931F932F
:1003C0002F933F934F935F936F937F938F939F935D
:1003D000AF93BF93CF93DF93EF93FF93C09126200A
:1003E000D0912720C0902920D0902A20BE0180E003
:1003F00090E00E9442032BED3FE049EC50E40E9464
:10040000D0037B018C01B60180E090E00E944203A2
:100410009B01AC01C801B7010E94AE020E943304E7
:1004200020E030E843E753E40E94D00320E030E8C6
:1004300043E753E40E944A020E9416039B01E0E056
:10044000F9E064AF75AF88EE91E0821B930B809367
:100450003E0990933F092196C0932620D0932720F0
:10046000FF91EF91DF91CF91BF91AF919F918F91CC
:100470007F916F915F914F913F912F911F910F91BC
:10048000FF90EF90DF90CF900F900FBE0F901F90D6
:1004900018955058BB27AA270ED048C139D130F043
:1004A0003ED120F031F49F3F11F41EF42EC10EF422
:1004B000E095E7FB24C1E92F4AD180F3BA17620720
:1004C00073078407950718F071F49EF562C10EF466
:1004D000E0950B2EBA2FA02D0B01B90190010C0154
:1004E000CA01A0011124FF27591B99F0593F50F46C
:1004F000503E68F11A16F040A22F232F342F4427C4
:10050000585FF3CF469537952795A795F0405395BB
:10051000C9F77EF41F16BA0B620B730B840BBAF08B
:100520009150A1F0FF0FBB1F661F771F881FC2F7F6
:100530000EC0BA0F621F731F841F48F4879577950A
:100540006795B795F7959E3F08F0B3CF9395880FC1
:1005500008F09927EE0F9795879508950CD0E6C07F
:10056000DED040F0D5D030F021F45F3F19F0C7C0A5
:10057000511110C1CAC0EBD098F39923C9F3552388
:10058000B1F3951B550BBB27AA2762177307840786
:1005900038F09F5F5F4F220F331F441FAA1FA9F33C
:1005A00033D00E2E3AF0E0E830D091505040E6952E
:1005B000001CCAF729D0FE2F27D0660F771F881F8F
:1005C000BB1F261737074807AB07B0E809F0BB0B7E
:1005D000802DBF01FF2793585F4F2AF09E3F5105A2
:1005E00068F08DC0D7C05F3FECF3983EDCF3869592
:1005F00077956795B795F7959F5FC9F7880F911D18
:100600009695879597F90895E1E0660F771F881F03
:10061000BB1F621773078407BA0720F0621B730BB6
:10062000840BBA0BEE1F88F7E095089598D088F0F8
:100630009F5790F0B92F9927B751A0F0D1F0660FCE
:10064000771F881F991F1AF0BA95C9F712C0B130E9
:1006500081F09FD0B1E008959CC0672F782F882744
:10066000B85F39F0B93FCCF3869577956795B39528
:10067000D9F73EF490958095709561957F4F8F4F97
:100680009F4F0895E89409C097FB3EF4909580959C
:10069000709561957F4F8F4F9F4F9923A9F0F92F48
:1006A00096E9BB279395F695879577956795B795C6
:1006B000F111F8CFFAF4BB0F11F460FF1BC06F5FAC
:1006C0007F4F8F4F9F4F16C0882311F096E911C0BE
:1006D000772321F09EE8872F762F05C0662371F0DF
:1006E00096E8862F70E060E02AF09A95660F771FF3
:1006F000881FDAF7880F9695879597F9089597F9E7
:100700009F6780E870E060E008959FEF80EC0895B7
:1007100000240A94161617061806090608950024E0
:100720000A9412161306140605060895092E03945A
:10073000000C11F4882352F0BB0F40F4BF2B11F4CE
:1007400060FF04C06F5F7F4F8F4F9F4F089557FD2D
:100750009058440F551F59F05F3F71F04795880F2F
:1007600097FB991F61F09F3F79F0879508951216C6
:1007700013061406551FF2CF4695F1DF08C0161672
:1007800017061806991FF1CF869571056105089423
:100790000895E894BB2766277727CB0197F908953A
:1007A0000BD0C4CFB5DF28F0BADF18F0952309F0DD
:1007B000A6CFABCF1124EECFCADFA0F3959FD1F324
:1007C000950F50E0551F629FF001729FBB27F00DFF
:1007D000B11D639FAA27F00DB11DAA1F649F662754
:1007E000B00DA11D661F829F2227B00DA11D621FA3
:1007F000739FB00DA11D621F839FA00D611D221F5D
:10080000749F3327A00D611D231F849F600D211D40
:10081000822F762F6A2F11249F5750408AF0E1F0E3
:1008200088234AF0EE0FFF1FBB1F661F771F881F2C
:1008300091505040A9F79E3F510570F060CFAACF6C
:100840005F3FECF3983EDCF3869577956795B79517
:10085000F795E7959F5FC1F7FE2B880F911D969541
:10086000879597F908959F9305D00F9007FCEE5F49
:1008700028C04BCF74DFE8F3E894E0E0BB279F5734
:10088000F0F02AED3FE049EC06C0EE0FBB0F661F0B
:10089000771F881F28F0B23A62077307840728F091
:1008A000B25A620B730B840BE3959A9572F78038FA
:1008B00030F49A95BB0F661F771F881FD2F79048B8
:1008C00013C0EF93E0FF06C0A2EA2AED3FE049EC37
:1008D0005FEBF1DD2BDF0F90039401FC9058ECE609
:1008E000F1E00EC09F3F31F0915020F4879577954D
:1008F0006795B795880F911D9695879597F90895F7
:100900009F938F937F936F93FF93EF939B01AC0122
:1009100047DFEF91FF9105D02F913F914F915F916C
:100920003FCFDF93CF931F930F93FF92EF92DF920E
:100930007B018C01689405C0DA2EEF013DDFFE01DA
:10094000E894A5912591359145915591AEF3EF012C
:10095000B2DDFE019701A801DA9479F7DF90EF90FC
:10096000FF900F911F91CF91DF910895A0E0B0E02B
:10097000ECEBF4E00C9485079E01275F3F4F8D81DF
:100980009E816F817885A9010E94EE042096E2E0A5
:100990000C949E07EF92FF920F931F93CF93DF93D8
:1009A0007C01EB018B8181FF11C000E010E008C0E9
:1009B000E885F985BE010995009711F00FEF1FEF4B
:1009C000F70181917F01882399F702C00FEF1FEF94
:1009D000C801CDB7DEB7E6E00C949A07ACE0B0E012
:1009E000E4EFF4E00C9475076C011B018A01FC0133
:1009F00016821782838181FFD1C12E010894411C88
:100A0000511CF6019381F10193FD859193FF819132
:100A10001F01882309F4BEC1853239F493FD859105
:100A200093FF81911F01853229F490E0B6010E9465
:100A3000EB06E7CFEE24FF2420E02032B0F48B3227
:100A400069F08C3228F4803251F0833271F40BC09B
:100A50008D3239F0803349F421602CC0226024604B
:100A600029C0286027C0206125C027FD2CC0382F51
:100A700030533A3098F426FF08C08E2D880FE82EA8
:100A8000EE0CEE0CE80EE30E15C08F2D880FF82E3D
:100A9000FF0CFF0CF80EF30E20620CC08E3221F416
:100AA00026FD78C1206406C08C3611F4206802C08F
:100AB000883649F4F10193FD859193FF81911F01DF
:100AC000882309F0BACF982F9554933018F090529C
:100AD000933028F40C5F1F4FFFE3F9830DC083367A
:100AE00031F0833771F0833509F060C022C0F8011E
:100AF000808189830E5F1F4F420171E0A72EB12CC8
:100B000016C062E0662E712C600E711EF8018080A6
:100B1000918026FF03C06E2D70E002C06FEF7FEF63
:100B2000C4012C870E94E0065C0183012C852F778D
:100B300017C052E0652E712C600E711EF801808086
:100B4000918026FF03C06E2D70E002C06FEF7FEF33
:100B5000C4012C870E94D5065C012C852068830186
:100B600023FD20C008C080E290E0B6012C870E94DF
:100B7000EB06FA942C858F2D90E0A816B90698F311
:100B800011C0F40127FD859127FF81914F0190E06D
:100B9000B6012C870E94EB062C85F110FA9408947C
:100BA000A108B108A114B10461F7F1C0843611F0B5
:100BB000893649F527FF08C0F8016081718182817B
:100BC00093810C5F1F4F09C0F801608171818827F4
:100BD00077FD8095982F0E5F1F4F4FE6B42EB222FF
:100BE00097FF09C090958095709561957F4F8F4FC5
:100BF0009F4FF0E8BF2AA2012AE030E00E941707C9
:100C0000782E741845C0853731F43FEEB32EB222EA
:100C10002AE030E025C099EFB92EB2228F36C1F01C
:100C2000803720F4883509F0B5C00DC0803721F039
:100C3000883709F0AFC002C020E1B22AB4FE0BC071
:100C400084E0B82A08C0B4FE09C0E6E0BE2A06C0A7
:100C500028E030E005C020E130E002C020E132E0D1
:100C6000B7FE08C0F80160817181828193810C5FB9
:100C70001F4F07C0F8016081718180E090E00E5F36
:100C80001F4FA2010E941707782E7418FFE7BF229A
:100C9000B6FE0BC02EEFB2227E1438F4B4FE07C0AD
:100CA000B2FC05C08FEEB82202C0A72C01C0AE2C4A
:100CB0008B2D90E0B4FE0DC0FE01E70DF11D2081EB
:100CC000203319F4E9EEBE2209C0A394B2FE06C097
:100CD00004C086789070009709F0A3948B2C992417
:100CE000B3FC14C0B0FE0FC0AF1428F4E72CEF0C17
:100CF000EA18AF2C08C0E72C06C080E290E0B601ED
:100D00000E94EB06A394AF14C0F304C0AF1410F418
:100D1000FA1801C0FF2484FE0FC080E390E0B60102
:100D20000E94EB0682FE1FC081FE03C088E590E0B2
:100D300010C088E790E00DC0C401867890700097DD
:100D400091F081FC02C080E201C08BE2B7FC8DE231
:100D500090E0B6010E94EB0606C080E390E0B60189
:100D60000E94EB06EA947E14C0F37A94F201E70D38
:100D7000F11D808190E0B6010E94EB067720A9F773
:100D800006C080E290E0B6010E94EB06FA94FF20D4
:100D9000C1F737CEF6012681378102C02FEF3FEF32
:100DA000C9012C96E2E10C948E07FC01059061507C
:100DB00070400110D8F7809590958E0F9F1F089571
:100DC000FC016150704001900110D8F7809590951A
:100DD0008E0F9F1F08950F931F93CF93DF938C0166
:100DE000EB018B8181FF1BC082FF0DC02E813F81F3
:100DF0008C819D812817390764F4E881F98101937A
:100E0000E883F98306C0E885F985802F0995009766
:100E100031F48E819F8101968E839F8302C00FEFF4
:100E20001FEFC801DF91CF911F910F910895FA0133
:100E3000AA27283051F1203181F1E8946F936E7F19
:100E40006E5F7F4F8F4F9F4FAF4FB1E03ED0B4E00A
:100E50003CD0670F781F891F9A1FA11D680F791F4B
:100E60008A1F911DA11D6A0F711D811D911DA11D5C
:100E700020D009F468943F912AE0269F112430196C
:100E8000305D3193DEF6CF010895462F4770405D07
:100E90004193B3E00FD0C9F7F6CF462F4F70405DB6
:100EA0004A3318F0495D31FD4052419302D0A9F711
:100EB000EACFB4E0A6959795879577956795BA950B
:100EC000C9F700976105710508959B01AC010A2ED1
:100ED00006945795479537952795BA95C9F7620FA8
:100EE000731F841F951FA01D08952F923F924F924C
:100EF0005F926F927F928F929F92AF92BF92CF92AA
:100F0000DF92EF92FF920F931F93CF93DF93CDB7B2
:100F1000DEB7CA1BDB0BCDBFDEBF09942A88398838
:100F200048885F846E847D848C849B84AA84B98481
:100F3000C884DF80EE80FD800C811B81AA81B9818D
:100F4000CE0FD11DCDBFDEBFED010895F894FFCFC8
:100F500049276D20616C6976652E2E2E0D0A00538F
:100F6000696E65204672657175656E6379203D20F6
:100F700025750D0A0000FFFFFFFFFFFFFFFFFFFFCA
:100F8000FFFFFFFFFFFFFFFFFFFFFFFFFFFFFFFF71
:100F9000FFFFFFFFFFFFFFFFFFFFFFFFFFFFFFFF61
:100FA000FFFFFFFFFFFFFFFFFFFFFFFFFFFFFFFF51
:100FB000FFFFFFFFFFFFFFFFFFFFFFFFFFFFFFFF41
:104000000C94B6200C94C0200C94C0200C94C020BA
:104010000C94C0200C94C0200C94C0200C94C020A0
:104020000C94C0200C94C0200C94C0200C94C02090
:104030000C94C0200C94C0200C94C0200C94C02080
:104040000C94C0200C94C0200C94C0200C94C02070
:104050000C94C0200C94C0200C94C0200C94C02060
:104060000C94C0200C94C0200C94C0200C94C02050
:104070000C94C0200C94C0200C94C0200C94C02040
:104080000C94C0200C94C0200C94C0200C94C02030
:104090000C94C0200C94C0200C94C0200C94C02020
:1040A0000C94C0200C94C0200C94C0200C94C02010
:1040B0000C94C0200C94C0200C94C0200C94C02000
:1040C0000C94C0200C94C0200C94C0200C94C020F0
:1040D0000C94C0200C94C0200C94C0200C94C020E0
:1040E0000C94C0200C94C0200C94C0200C94C020D0
:1040F0000C94C0200C94C0200C94C0200C94C020C0
:104100000C94C0200C94C0200C94C0200C94C020AF
:104110000C94C0200C94C0200C94C0200C94C0209F
:104120000C94C0200C94C0200C94C0200C94C0208F
:104130000C94C0200C94C0200C94C0200C94C0207F
:104140000C94C0200C94C0200C94C0200C94C0206F
:104150000C94C0200C94C0200C94C0200C94C0205F
:104160000C94C0200C94C0200C94C02011241FBEBD
:10417000CFEFD7E2DEBFCDBF0E94CF220C94252522
:104180000C940020982FE0ECF1E08091CF0187FDA6
:10419000FACF262F30E02F713070892F90E045E064
:1041A000880F991F4A95E1F7282B392B2093C001DE
:1041B000832F8F718183128286E08287EF93FF9332
:1041C0000F932F93EBECF1E008ED21E004BF208387
:1041D0002F910F91FF91EF918091C40108958091EB
:1041E000CF0187FDFCCF08958091CF0187FDFCCFE3
:1041F0008091CF0181FF12C086E3E0ECF1E082877D
:10420000EF93FF930F932F93EBECF1E008ED21E098
:1042100004BF20832F910F91FF91EF910895DF92BA
:10422000EF92FF920F931F93E82E062FD42E0E9439
:10423000F420E0ECF1E083E3828710E00F7110706E
:10424000FF2455E0EE0CFF1C5A95E1F70E291F29BB
:104250000083812F8F7181831282D48285E38287CC
:10426000EF93FF930F932F93EBECF1E008ED21E038
:1042700004BF20832F910F91FF91EF911F910F9118
:10428000FF90EF90DF900895982FE0ECF1E080919F
:10429000CF0187FDFACF83E382879093C00111821B
:1042A000128264830895DC01E0ECF1E08091CF019B
:1042B00087FDFACF83E382871182128290E0909388
:1042C000C0018D9184839F5F9032C9F70895982F24
:1042D000E0ECF1E08091CF0187FDFACF892F90E0EB
:1042E00065E0880F991F6A95E1F78093C001892FD7
:1042F0008F718183128285E38287EF93FF930F93FF
:104300002F93EBECF1E008ED21E004BF20832F9127
:104310000F91FF91EF910895982FE0ECF1E08091DB
:10432000CF0187FDFACF892F90E075E0880F991FA4
:104330007A95E1F78093C001892F8F718183128272
:1043400082E38287EF93FF930F932F93EBECF1E0DF
:1043500008ED21E004BF20832F910F91FF91EF9191
:104360000895982FE0ECF1E08091CF0187FDFACF1E
:10437000892F90E0A5E0880F991FAA95E1F7809317
:10438000C001892F8F718183128284E38287EF932A
:10439000FF930F932F93EBECF1E008ED21E004BFC6
:1043A00020832F910F91FF91EF9108958091CF017C
:1043B00087FDFCCF80E3E0ECF1E08287EF93FF9391
:1043C0000F932F93EBECF1E008ED21E004BF208385
:1043D0002F910F91FF91EF9108950F931F93CF931A
:1043E000DF938C01EA016534F1F48091CC01877F81
:1043F000E0ECF1E084870E94F42088819981682FA5
:104400006F7145E0969587954A95E1F70E94C22025
:104410000E9476248881998101968883998301502E
:10442000104059F726C0663421F588819981880F9C
:10443000991F888399836881798180E090E00E9448
:1044400085240E947624688179816F5F7F4F80E0A8
:1044500090E00E9485240E947624888199810296AA
:10446000888399830250104031F796958795888309
:104470009983DF91CF911F910F9108958F929F9211
:10448000AF92BF92CF92DF92EF92FF920F931F9362
:10449000DF93CF93CDB7DEB7C050D140CDBFDEBFE5
:1044A0004C016A01653499F50E94F4208091CC0199
:1044B000877FE0ECF1E084877E010894E11CF11C29
:1044C00057018701080D191D05C00E947E24F501C2
:1044D00081935F01A016B106C1F715C0F601808176
:1044E0009181682F6F7175E0969587957A95E1F7C0
:1044F000F70141917F010E940F21F6018081918196
:10450000019680839183EA14FB0441F736C0663438
:1045100011F08FE333C0FA01A080B180AA0CBB1C5C
:10452000A082B1820E947E24082F10E00E947E2487
:10453000F82EEE240E291F29F60180819181B80101
:104540000E94BA24F6018081918102968083918332
:104550008EEF9FEF880E991E8114910419F7B50113
:1045600080E090E00E94D0240E94FD24F60180812A
:10457000918196958795808391838DE0C050DF4F20
:10458000CDBFDEBFCF91DF911F910F91FF90EF90D4
:10459000DF90CF90BF90AF909F908F9008952F9213
:1045A0003F924F925F926F927F928F929F92AF92C3
:1045B000BF92CF92DF92EF92FF920F931F93DF9300
:1045C000CF9300D00F92CDB7DEB788E1E0E2F6E0FE
:1045D000828B00C000C000008091280682FD59C176
:1045E0001A821B8219820E94F4208091CC01877F5D
:1045F000E0ECF1E0848784E0E0E6F6E081830E946D
:104600006924EE24FF2490E6292E96E0392E82E0DC
:10461000482E512C4C0E5D1E0E947E2489838136CB
:1046200011F489E533C1813459F40E947E24182F96
:104630000E947E24D12ECC2490E08C299D2986C016
:104640008536E9F41A821B820EC00E94FD246A811D
:104650007B8180E090E00E94B4248A819B8180501D
:104660009F4F8A839B838A819B818050904468F30B
:10467000CE0101960E9453210E94D621DAC08236D3
:1046800029F489E50E94762481E0BFC08234A1F438
:104690000E947E24182F0E947E24B12EAA24E82E88
:1046A000FF24EA28FB280E947E24682F8983C70103
:1046B000A2010E943E22EAC08736A1F40E947E2415
:1046C000182F0E947E24912E8824E82EFF24E828AB
:1046D000F9280E947E24682F8983C701A2010E94C5
:1046E000ED219ACF8235B9F40E94FD246A817B8145
:1046F000660F771F6F5F7F4F80E090E00E948524F8
:104700000E9476246A817B81660F771F80E090E0AB
:104710000E94852450C0833629F40E947E24E82E0E
:10472000FF2487C08334A9F40E947E24782E662457
:10473000E628F7280E94FD248A819B81880F991F13
:10474000B7010E94BA248A819B8101968A839B8348
:1047500070C08D3689F48A819B818050904208F028
:1047600094C00E94FD246A817B81660F771F80E0E0
:1047700090E00E94D0245DC0843481F40A811B81C2
:104780000E947E24482F602F6F71F5E016950795E3
:10479000FA95E1F7802F0E940F210FC0843699F41B
:1047A0008A819B81682F6F71E5E096958795EA95E0
:1047B000E1F70E94C2200E9476248A819B810196A3
:1047C0008A839B8329CF8C3639F40E94FD240E9472
:1047D0007E240E94A1242DC0803559F18C3449F1EA
:1047E000853461F40E94FD248DE00E94762480913E
:1047F000A10885FFFCCF0E941F250ECF803711F442
:1048000083E544C0843729F48AEF0E94762480E04F
:104810003DC0883721F424E0F10126830AC089379E
:1048200021F424E0F101258304C0843521F40E94A1
:104830007E248DE02BC08335A1F488E50E94762488
:104840008DE60E94762485E60E94762487E60E9403
:10485000762481E60E94762482E40E9476248CE607
:1048600015C0863529F481E30E94762481E30EC0C9
:10487000833741F482E40E94762484E90E947624FE
:104880008EE104C08B3109F4C7CE8FE30E947624F9
:10489000C3CE0E94FD240E94F6241CBEE0E0F0E09E
:1048A000099580E090E02396CDBFDEBFCF91DF91E8
:1048B0001F910F91FF90EF90DF90CF90BF90AF903E
:1048C0009F908F907F906F905F904F903F902F9030
:1048D000089588E0E0E4F6E08183E0EAF8E08BE028
:1048E000868380E9878388E184830895982F809167
:1048F000A10885FFFCCF9093A00808958091A1089E
:1049000087FFFCCF8091A00808953BB78BBFFB01C8
:1049100086913BBF08953BB78BBFFB018791969172
:104920003BBF089542E081C041E07FC08093C00159
:1049300088278093C1018093C20147E066D0CB01F4
:1049400008958093C40148E060C08091D00108952B
:104950003BB748E10C943A253BB74AE10C943A2521
:104960003BB740E20C943A253BB78BBFCB0142E208
:104970000C943A253BB70B0143E20C943A253BB724
:104980006BBFFA0119BEDC0140E04093CA0150E060
:10499000879197918D939D935A95D1F73BBF089539
:1049A0003BB78BBFCB0144E20C943A253BB78BBF9E
:1049B000CB0145E20C943A253BB746E20C943A25EC
:1049C0003BB78BBFCB014AE20C943A253BB78BBF78
:1049D000CB014CE20C943A253BB78BBFCB014DE2A7
:1049E0000C943A2548E311C049E30FC028ED209309
:1049F000340021E02093CC0108952091CF0127FDC0
:104A0000FCCF22272093CA0108954093CA0128EDC4
:104A100031E0209334003093CB016091C401709158
:104A2000C5018091C60199270895FC014093CA01F0
:104A30008491089548ED44BF80934000089548ED67
:104A400044BF41E0409379000895F894FFCFEE27EA
:104A5000FF2719BEDC0143E24093CA0150E82DE96B
:104A60000D901D9020933400E89532965A95C1F729
:104A700011240895FC014093CA012DE920933400CC
:104A8000E89511243BBF0895FFFFFFFFFFFFFFFFE5
:104A9000FFFFFFFFFFFFFFFFFFFFFFFFFFFFFFFF26
:104AA000FFFFFFFFFFFFFFFFFFFFFFFFFFFFFFFF16
:104AB000FFFFFFFFFFFFFFFFFFFFFFFFFFFFFFFF06
:104AC000FFFFFFFFFFFFFFFFFFFFFFFFFFFFFFFFF6
:00000001FF
